:100000000C94D2090C94EF090C94BC0B0C94EF09DE
:100010000C94EF090C94EF090C94EF090C94EF0980
:100020000C94EF090C94EF090C94EF090C94EF0970
:100030000C94EF090C94EF090C94EF090C94D40A7A
:100040000C94EF090C94EF090C94EF090C94EF0950
:100050000C94EF090C94EF090C94EF090C94EF0940
:100060000C94EF090C94EF090C94EF090C94EF0930
:10007000B220F02CF02CF02CF02C7E21F02CF02C67
:10008000F02CF02CF02CF02CF02CFE20F02CF71C97
:10009000571D901DF01D501EC51E3A1FA81F1D2084
:1000A0003D20CF20F02CF02CF02CF02C3421F02C23
:1000B000F3216822DD225223C72326248524F92434
:1000C00058259025EF256326D7263627AA271E28F0
:1000D000922806297A29EE29622AAC2A202B942B11
:1000E000082C7C2C00000000000000000000000034
:1000F0000000000000000000000000000000000000
:1001000000000000000000000000000000000000EF
:1001100000000000000000000000000000000000DF
:1001200000000000000000000000000000000000CF
:1001300000000000000000000000000000000000BF
:1001400000000000000000000000000000000000AF
:10015000000000000000000000000000000000009F
:10016000000000000000000000000000000000008F
:10017000000000000000000000000000000000007F
:10018000000000000000000000000000000000006F
:10019000000000000000000000000000000000005F
:1001A000000000000000000000000000000000004F
:1001B000000000000000000000000000000000003F
:1001C000000000000000000000000000000000002F
:1001D000000000000000000000000000000000001F
:1001E000000000000000000000000000000000000F
:1001F00000000000000000000000000000000000FF
:1002000000000000000000000000000000000000EE
:1002100000000000000000000000000000000000DE
:100220000000C0C0C0070707000000000000000079
:1002300000E0E0E07F7F7F000000000000000000A1
:10024000F0F0F07C7C7C00000000000000000090DA
:1002500090903E3E3E00000000000000000094949C
:10026000941F1F1F000000000000000000D4D4D421
:100270000F0F0F000000000000000000909090EFB2
:100280002FEF1F001F000000000000909090EF0F64
:10029000EF1F001F000000000000D0D0D0EF0FEFD4
:1002A0001F001F000000000000909090EF0FEF1F54
:1002B000001F0000000000009494949C1CDC1F00B0
:1002C0001F000000000000F4F4F43E3E3E1F001F3B
:1002D000000000000000F0F0F0FFFFFF1F001F0013
:1002E0000000000000E0E0E0FFFFFF1F001F000033
:1002F00000000000D0C0D00707871F001F000000CB
:10030000000000300030F800F81F001F000000005F
:100310000000F000F0FF00FF1F001F0000000000C1
:1003200000F000F0FF00FF1F001F000000000000B1
:10033000F000F0FF00FF1F001F000000000000F4AD
:1003400004F4FF00FF1F001F000000000000F40481
:10035000F4FF00FF1F001F000000000000F000F08D
:10036000FF00FF1F001F000000000000F000F0FF72
:1003700000FF1F001F000000000000F000F0FF0061
:10038000FF1F001F000000000000F000F0FF00FF52
:100390000F000F0000000000000C0C0C000000001B
:1003A00000000000000000000C0C6CF272020F0054
:1003B000000000000000000060F0F6F6060F0100EB
:1003C00000000000000000E0FCCECE0E0F01000097
:1003D000000000000000E0FCCCCD0C0F010000008C
:1003E0000000000000E0FCD8DB180F010000000056
:1003F00000000000C0FCC0C7001F0100000000009A
:10040000000000C0FCF0FF011F030000000000001E
:100410000000C0FCF0FF011F03000000000000000E
:1004200000C0FCF0FF011F030000000000000000FE
:10043000C0FCF0FF011F030000000000000000C02E
:10044000FCF0FF011F030000000000000000C0FCE2
:10045000F0FF011F030000000000000000C0FCF0DE
:10046000FF011F030000000000000000C0FCF8FFB7
:10047000001F010000000000000000E0FCF8FF0089
:100480001F010000000000000000E0FCF8FF001F5A
:10049000010000000000000000E0FCF8FF001F0168
:1004A0000000000000000000E0FCF8FF001F010059
:1004B00000000000000000E0FCF8FF001F01000049
:1004C000000000000000E0FCF8FF001F0100000039
:1004D0000000000000E0FCF8FF001F010000000029
:1004E00000000000C0FCF0FF011F0300000000003E
:1004F000000000C0FCF0FF011F030000000000002E
:100500000000C0FCF0FF011F03000000000000001D
:1005100000C0FCF0FF011F0300000000000000000D
:10052000C0FCF0FF011F030000000000000000C03D
:10053000FCF0FF011F030000000000000000C0FCF1
:10054000F0FF011F030000000000000000C0FCF8E5
:10055000FF001F010000000000000000E0FCF8FFA9
:10056000001F010000000000000000E0FCF8FF0098
:100570001F010000000000000000E0FCF8FF001F69
:10058000010000000000000000E0FCF8FF001F0177
:1005900000000000FF0707FF0000FF0000FF000051
:1005A000FF0000FF0707FF0000FF0000FF0000FF43
:1005B0000000FF0F0FFF0000FF0000FF0000FF0022
:1005C00000FF0F0FFF0000FF0000FF0000FF000012
:1005D000FF0F0FFF0000FF0000FF0000FF0000FF03
:1005E0001F1FFF0000FF0000FF0000FF0000FF1FB3
:1005F0001FFF0000FF0000FF0000FF0000FF1F1FA3
:10060000FF0000FF0000FF0000FF0000FF3F3FFF72
:100610000000FF0000FF0000FF0000FF3F3FFF0061
:1006200000FF0000FF0000FF0000FF3F3FFF000051
:10063000FF0000FF0000FF0000FF7F7FFF0000FFC2
:100640000000FF0000FF0000FF7F7FFF0000FF00B1
:1006500000FF0000FF0000FF7F7FFF0000FF0000A1
:10066000FF0000FF0000FF7F7FFF0000FF0000FF92
:100670000000FF0000FF7F7FFF0000FF0000FF0081
:1006800000FF0000FFFFFFFF0000FF0000FF000071
:10069000FF0000FFFFFFFF0000FF0000FF0000FF62
:1006A0000000FFFFFFFF0000FF0000FF0000FF0051
:1006B00000FFFFFFFF0000FF0000FF0000FF000041
:1006C000FFFFFFFF0000FF0000FF0000FF0000FF32
:1006D000FFFFFF0101FF0000FF0000FF0000FFFF20
:1006E000FFFF0101FF0000FF0000FF0000FFFFFF10
:1006F000FF0101FF0000FF0000FF0000FFFFFFFF00
:100700000101FF0000CF0000FF0000FFFFFFFF011D
:1007100001FF00000F0000FF0000FFFFFFFF0303C9
:10072000FF0000070000FF0000FFFFFFFF0303833F
:100730000000070000FF0000FFFFFFFF0303BB38BE
:1007400038070000FF0000FFFFFFFF03037B7878FE
:10075000830000FF0000FFFFFFFF0303FBF8F8C268
:100760000000FF0000FFFFFFFF0303FBF8F8E200BB
:1007700000FF0000FFFFFFFF0303FBF8F8E00000AD
:10078000FF0000FFFFFFE70303FBF8F8F00000FFA6
:100790000000FFFFFF8B0B037B7878F80000FF0061
:1007A00000FFFFFF2D2D014B4848FC0000FF00001B
:1007B000FFFFFF6E6E004B4848FC0000FF00007F0B
:1007C0007F7FEFEF007A7878FE0000FF00003F3F68
:1007D0003FEFEF00191918FF0000FF0000BFBF3FF7
:1007E000EFEF00030300FF0000FF0000BFBF3FEF7B
:1007F000EF00030300FF0000FF00003F3F3FEFEF6B
:1008000000191918FF0000FF00007F7F7FEFEF0045
:100810007A7878FE0000FF0000FFFFFF6E6E004B4D
:100820004848FC0000FF0000FFFFFF2D2D014B4852
:1008300048FC0000FF0000FFFFFF8B0B037B787874
:10084000F80000FF0000FFFFFFE70303FBF8F8F0EC
:100850000000FF0000FFFFFFFF0303FBF8F8E000CC
:1008600000FF0000FFFFFFFF0303FBF8F8E20000BA
:10087000FF0000FFFFFFFF0303FBF8F8C20000FFCB
:100880000000FFFFFFFF03037B7878830000FF0079
:1008900000FFFFFFFF0303BB3838070000FF000025
:1008A000FFFFFFFF0303830000070000FF0000FFBE
:1008B000FFFFFF0303FF0000070000FF0000FFFF32
:1008C000FFFF0101FF00000F0000FF0000FFFFFF1E
:1008D000FF0101FF0000CF0000FF0000FFFFFFFF4E
:1008E0000101FF0000FF0000FF0000FFFFFFFF010C
:1008F00001FF0000FF0000FF0000FFFFFFFF0101FC
:10090000FF0000FF0000FF0000FFFFFFFF0000FFEF
:100910000000FF0000FF0000FFFFFFFF0000FF00DE
:1009200000FF0000FF0000FFFFFFFF0000FF0000CE
:10093000FF0000FF0000FFFFFFFF0000FF0000FFBF
:100940000000FF0000FFFFFFFF0000FF0000FF00AE
:1009500000FF0000FF7F7FFF0000FF0000FF00009E
:10096000FF0000FF7F7FFF0000FF0000FF0000FF8F
:100970000000FF7F7FFF0000FF0000FF0000FF007E
:1009800000FF7F7FFF0000FF0000FF0000FF00006E
:10099000FF7F7FFF0000FF0000FF0000FF0000FF5F
:1009A0003F3FFF0000FF0000FF0000FF0000FF3F8F
:1009B0003FFF0000FF0000FF0000FF0000FF3F3F7F
:1009C000FF0000FF0000FF0000FF0000FF1F1FFFEF
:1009D0000000FF0000FF0000FF0000FF1F1FFF00DE
:1009E00000FF0000FF0000FF0000FF1F1FFF0000CE
:1009F000FF0000FF0000FF0000FF0F0FFF0000FFDF
:100A00000000FF0000FF0000FF0F0FFF0000FF00CD
:100A100000FF0000FF0000FF0F0FFF0000FF0000BD
:100A2000FF0000FF0000FF0707FF0000FF0000FFBE
:100A30000000FF0000FF0707FF0000FF0000FF00AD
:100A400000FF000007070700000000000000000092
:100A5000F0FCF0070707000000000000000000F0B5
:100A6000FEE00F0F0F000000000000000000F0FE8D
:100A7000E00F0F0F000000000000000000E0FEE0AB
:100A80000F0F0F000000000000000000E0FFE11F5A
:100A90001F1F000000000000000000E0FEE01F1F1C
:100AA0001F707010000000000000E0FEE01F1F1F1C
:100AB000F8F808040504000000E0FEE01F1F1FF026
:100AC000F000040504008000E0FFE01F1F1FE0F0BD
:100AD0000001090840C000E0EFE01F1F1FE0E00038
:100AE00001010040E000E0EF601F1F1FE0E0000197
:100AF000010070F000E0FF201F1F1FE0F000004821
:100B00004820F000E0FF201F1F1F607070001818C1
:100B10003EFE00E0FFC01F1F1F0000001818183E17
:100B2000FE00C0FFC01F1F1F00000040C0003EFFAE
:100B300000C0FFC01F1F1F000000C8C8087FFF00C3
:100B4000C0FFC03F3F3F00000090F0107FFF00C09B
:100B5000FFC01F1F1F000000000000FFFF00C0FFBC
:100B6000C01F1F1F000000000000FEFE00C0DFC00D
:100B70001F1F1F0000000000007FFF00C0DFC01F1C
:100B80001F1F0000000080003FFF00C0CFC01F1FDC
:100B90001F000000C0C0C03FFF00C0CFC00F0F0F3C
:100BA0000000000000001EFF00C0CFC01F1F1F007C
:100BB00000000000007EFE00C0CFC01F1F1F00000D
:100BC000000000007CFE00C0CFC01F1F1F000000FF
:100BD0000000007EFE00C0CFC01F1F1F00000000ED
:100BE00000007FFF00C0CFC01F1F1F0000008080DB
:100BF000000FEF00C0C7C01F1F1F80C0C0F0F00073
:100C00003FFF00C0C7C01F1F1F000000F0F8003FDB
:100C1000FF00C0C7C00F1F1F000000FFFF001FFF25
:100C200000C0C7C00F0F0FC0C000FFFF0017D700E4
:100C3000C0CFC00F0F0FE0E000FFFF00C7F700C1FB
:100C4000CFC00F0F0FE0F000FFFF00E7E700C0CFBD
:100C5000C00F0F0FF0F030FFFF00E7E700C0CCC07F
:100C60000F0F0FC0C000F3FF00C7E700C0C7C40FDD
:100C70000F0F000000E0F000CFEF00C2C3C20F0F63
:100C80000F000000E0E0004FCF00C0C2C20F0F0F06
:100C9000000000E0E0006FEF40C0C0C00F0F0F0089
:100CA0000000E0E0003FBF80C0C0C00F0F0F000099
:100CB00000E0E020173700C0C0C00F0F0F00000099
:100CC000C0C000030303C0C0C00F0F0F000000002E
:100CD0008000000000C0C0C007070700000000003F
:100CE00000000000F0F0B00707070000000000005F
:100CF000000000F8F8F807070700000000000000F7
:100D00000000F8F8F80707070000000000000000E6
:100D100000F8F8F8070707000000060706000000C3
:100D2000FCFCFC070707008000070F00000000FE26
:100D3000FEFE07070780C000070F00000000FCFE52
:100D4000FE070707E0E000191F10000000F8FCF0A4
:100D5000070707F0F000191F00808080F0F0E01F07
:100D60001F1FF8F8083D3F00808000ECEDE01F1FDA
:100D70001FFCFC00383F00C0C000EDEDE00F0F0F7E
:100D80003FFF07397F00C0E000EDEFC00F0F0F00FD
:100D900000003A3F20E0F000EFEFC0070707000037
:100DA000000C0C0CF0F800F8FCC00707070000006E
:100DB000000000F0FC00FCFCC00F0F0F00000080E2
:100DC0008080F8FC00FCFDC00F0F0F0000000080C9
:100DD00080F8FC00FDFFC00F0F0F000000000000B6
:100DE000FCFF01FFFFC00F0F0F000000000000FF1D
:100DF000FF01FFFFC0070707000000000000FEFE24
:100E000000FFFFC0070707000000000000FCFC0017
:100E1000FFFFC0070707000000000000F8F800FB14
:100E2000FFE007070700000000000030F000F0FFBF
:100E3000E007070700000000000000C000F0FFE02E
:100E4000070707000000000000008000E0FFE00747
:100E50000707000000000000000000F0FFE00707A7
:100E600007000000000000000000F0FEF007070788
:100E7000000000000000000000F0FEF0070707007F
:100E80000000000000000000F8FEF0070707000067
:100E900000000000000000F8FEF003030300000063
:100EA000000000000000F8FEF00303030000000053
:100EB0000000000000F8FEF0030303000000000043
:100EC00000000000F0F8F003030300000000000041
:100ED000000000F0F0F00303030000000000000039
:100EE0000000F8F8F8030303000000000000000011
:100EF00000F8F8F80307FF0000FF0000FF0000FF04
:100F0000F0FCFF0707FF0000FF0000FF0000FFE00C
:100F1000FCFF0F0FFF0000FF0000FF0000FFE0FEDE
:100F2000FF0F0FFF0000FF0000FF0000FFE0FEFFCB
:100F30000F0FFF0000FF0000FF0000FFE0FCFF0FAD
:100F40000FFF0000FF0000FF0000FFE0FEFF1F1F7B
:100F5000FF7070FF0000FF0000FFE0FEFF1F1FFF9B
:100F6000F0F8FF0404FF0000FFE0FEFF1F1FFFF08A
:100F7000F0FF0004FF0080FFE0FEFE1F1FFFE0E027
:100F8000FF0101FF00C0FFE0EFE11F1FFFE0E0EF06
:100F90000101FF40E07FE0EFE01F1FFFE0E0FF0105
:100FA00001FF20F07FE0FFF81F1FFFE0E0FF0000DF
:100FB000FF20E027E0FFF81F1FFF6060FF0010FF29
:100FC0003EFE2FC0EFF81F1FFF0000FF0018FF3E7E
:100FD000FE0FC0EFF01F1FFF0000FF0040FF3EFEAE
:100FE00006C0DFF01F1FFF0000FFC0C8FF3FFF016A
:100FF000C0FFF01F1FFF0000FF8090FF7FFF03C0B6
:10100000FFF01F1FFF0000FF0000FF7FFF01C0DF98
:10101000F01F1FFF0000FF0000FF7EFE02C0DFF890
:101020001F1FFF0000FF0000FF7EFF03C0CFF81F5F
:101030001FFF0000FF0000FF3FFF03C0CFF80F0FAE
:10104000FF0000FF80C0FF1EFF03C0CFF80F0FFF9F
:101050000000FF0000FF1EFF03C0CFFC1F1FFF00AA
:1010600000FF0000FF3EFE07C0CFFC1F1FFF000077
:10107000FF0000FF7CFC07C0C7FC1F1FFF0000FF34
:101080000000FF3EFE07C0C7FC1F1FFF0000FF005F
:1010900000FF3FFF23C0C7FC1F1FFF0000FF808031
:1010A000FF0FCF01C0C7FC1F1FFF8080FFA0A0FF64
:1010B0003FFF3BC0C7FE0F0FFF0000FFF0F07F1F98
:1010C000FF7EC0C7FE0F0FFF0000FFFFFF1F1FDFE7
:1010D0001CC0C7FE0F0FFFC0C0FFFFFF0717D716CA
:1010E000C0C7FC0F0FFFC0E0FFFFFF0087F7D6C0AF
:1010F000CFFD0F0FFFE0E07FFFFF00E7E7E6C0CF87
:10110000FF0F0FFFE0E0FFFFFF87C7E7E6C0CCFC63
:101110000F0FFF8080FFF1FFFF47E7F7C0C7FE0F0B
:101120000FFF0000FFE0F0FF4FCFEFC0C3FF0F0F36
:10113000FF0000FFE0E07F4FCFEFC0C0FF0F0FFFC9
:101140000000FFE0E0FF6F6FEFC0C0FF0F0FFF0078
:1011500000FFE0E0FF173FFFC0C0FF0F0FFF0000E0
:10116000FFE0E0FF0717FFC0C0FF0F0FFF0000FF09
:10117000C0C0FF0303FFC0C0FF0F0FFF0000FF0050
:1011800000FF0000FFC0C0FF0707FF0000FF0000D6
:10119000FF0000FFE0F0FF0707FF0000FF0000FF77
:1011A0000000FFF0F0FF0707FF0000FF0000FF0056
:1011B00000FFF8F8FF0303FF0000FF0000FF00003E
:1011C000FFF8F8FF0303FF0000FF0606FF0000FF23
:1011D000FCFCFF0303FF0080FF0707FF0000FFFC8C
:1011E000FCFF0303FF00C0FF030FFF0000FFFCFC38
:1011F000FF0707FFE0E0FF181FF80000FFF0F8FF0F
:101200000707FF30F07F181FF80080FFF0F0FF1F86
:101210001FFF38F83F383FF88080FFE0E0FF1F1FD6
:10122000FFFCFCFF383FF080C0FFEDEDFD0F1FFF1E
:101230000EBFFF393FFBC0C0FFEDEFEF0F0FFF0008
:1012400000FF383FFFE0E0FFEBEFEF0707FF000094
:10125000FF080CFFF0F87FF8FCFC0707FF0000FF19
:101260000000FFB0FC9FFCFCFC0707FF0000FF0034
:1012700080FFF8F89FFCFCFD0F0FFF0000FF0080CF
:10128000FFF8F881FDFDFD0F0FFF0000FF0000FFDC
:10129000FCFD0FFFFFFF0F0FFF0000FF0000FFFF2F
:1012A000FF07FFFFFC0707FF0000FF0000FFFCFE39
:1012B00007FFFFF80707FF0000FF0000FFFCFC0F1F
:1012C000FBFFF80707FF0000FF0000FFF8F83FF101
:1012D000FFF80707FF0000FF0000FF30F07FF0FF7E
:1012E000F80707FF0000FF0000FF0080FFE0FFF1AC
:1012F0000707FF0000FF0000FF0000FFE0EFF70717
:1013000007FF0000FF0000FF0000FFF0FFFF0707DE
:10131000FF0000FF0000FF0000FFF0FEFF0707FFD7
:101320000000FF0000FF0000FFF0FEFF0707FF00C6
:1013300000FF0000FF0000FFF0FEFF0707FF0000B6
:10134000FF0000FF0000FFF8FEFF0707FF0000FF9F
:101350000000FF0000FFF8FEFF0303FF0000FF0096
:1013600000FF0000FFF0FEFF0303FF0000FF00008E
:10137000FF0000FFF0F0FF0303FF0000FF0000FF8D
:101380000000FFF0F0FF0303FF0000FF0000FF007C
:1013900000FFF8F8FF0303FF0000FF0000FF00005C
:1013A000FFF8F8FF11241FBECFEFD0E1DEBFCDBFA5
:1013B00011E0A0E0B1E0E4E0FCE502C005900D9290
:1013C000A035B107D9F716E0A0E5B1E001C01D9244
:1013D000A430B107E1F70E94F1090C94002E0C949F
:1013E00000001F930E94910A0E94B00A8AEF0E9497
:1013F000810AE0E5F1E08FEF03C031968FEF0EC078
:10140000808383838683818784873F9692E0E43F4D
:10141000F907B1F7F2CF31961FEF0BC080838383BA
:101420008683818784873F9694E0E939F907B1F78D
:10143000F2CF108313831683118714873F9686E0BB
:10144000E230F807B1F70E94910A10935601109309
:10145000F9058AEF0E94810A8AEF0E94810A0E94A0
:10146000910A0E94910A80E060E071E045E051E05D
:101470002BE031E00E94C0180E94910A0E94B3182C
:101480000E94910A0E941A160E94910A80E191E03E
:101490006EE171E043E251E00E94C2170E94910A9E
:1014A0000E9435190E94910A0E94021A0E94910A14
:1014B0000E9476190E94910A0E940E170E94910ABA
:1014C0000E94F91A0E94910A0E9408190E94910A2A
:1014D0000E94D8160E94910A0E9483190E94910AC4
:1014E0000E9495190E94910A0E948C190E94910AEB
:1014F00089E291E064E371E04CE351E00E947918E5
:10150000AECF90E044EF51E009C028EC30E0FA01A2
:101510003197F1F721503040D1F79F5F9817A8F32A
:1015200008952FE531E080E090E00EC01082118236
:1015300012823396E217F307C9F701969F01215FE4
:101540003F4F8035910559F0FC0144E0EE0FFF1F3D
:101550004A95E1F7E81BF90BE05BFE4FE7CF0895F2
:1015600081B18E6781B984B1876084B90E94910A84
:10157000E99AE9E6F0E0808188608083E1E8F0E0C4
:10158000808181608083EFE6F0E0808181608083EC
:10159000109201061092000680E69AEE90930306E0
:1015A00080930206789408951F920F920FB60F92BF
:1015B00011242F933F934F935F936F937F938F9358
:1015C0009F93AF93BF93CF93DF93EF93FF9380915C
:1015D00002069091030690938500809384002091E9
:1015E00000063091010681E02D33380708F0A5C0D0
:1015F000C90183709070892B09F0A2C03695279598
:101600003695279530E0C901E4E0880F991FEA95E7
:10161000E1F7821B930BDC01A45ABE4F24E030E0BB
:10162000EC0179C0862F8E2311F0149801C0149A12
:10163000862F872311F0159801C0159A862F8923CC
:1016400011F0169801C0169A82B18E6082B982B1EB
:10165000817F82B9660F4F5F5F4F4430510511F7AC
:1016600060E140E050E0862F8E2311F0149A01C013
:101670001498862F872311F0169A01C01698862F8A
:10168000892311F0159A01C0159882B18E6082B934
:1016900082B1817F82B9660F4F5F5F4F4330510542
:1016A00011F7F901EE0FFF1FE20FF31FEC0FFD1F03
:1016B000E05BFE4F808187FF02C0149A01C014983E
:1016C000F901EE0FFF1FE20FF31FEC0FFD1FE05BB0
:1016D000FE4F818187FF02C0169A01C01698F9015A
:1016E000EE0FFF1FE20FF31FEC0FFD1FE05BFE4F3D
:1016F000828187FF02C0159A01C0159882B18E6061
:1017000082B982B1817F82B91397215030408FEF27
:101710002F3F380759F0EC9111967C911197129652
:101720009C91129761E040E050E07CCF85B18760EA
:1017300085B985B1887F85B903C0285E334048F4F8
:101740008091000690910106019690930106809386
:101750000006FF91EF91DF91CF91BF91AF919F91E3
:101760008F917F916F915F914F913F912F910F904A
:101770000FBE0F901F9018951F920F920FB60F92E9
:1017800011242F933F934F935F938F939F931092C6
:10179000850010928400409100065091010620912E
:1017A00002063091030680916F008E7F80936F0058
:1017B000B09A8AEF2030380718F080E09AEF05C021
:1017C000C901805C9E4F841B950B90930306809308
:1017D0000206C296909385008093840010920106C1
:1017E0001092000680916F00816080936F009F913E
:1017F0008F915F914F913F912F910F900FBE0F905E
:101800001F90189520E030E0FC01E20FF31FE491F7
:10181000D901A05BBE4FEC932F5F3F4F44E0203BCC
:10182000340791F7089570E02FE430E0261B370B62
:1018300090E0A0E5B1E0AC01440F551F480F591FDF
:10184000F90184E0EE0FFF1F8A95E1F7E21BF30B2D
:10185000E40FF51FEA0FFB1F81818E6081838EE408
:1018600090E0861B970BFC0134E0EE0FFF1F3A95CA
:10187000E1F7E81BF90BE40FF51FEA0FFB1F81816D
:10188000886181838DE490E0861B970BFC0124E046
:10189000EE0FFF1F2A95E1F7E81BF90BE40FF51F88
:1018A000EA0FFB1F81818E6B81838CE490E0861BA5
:1018B000970BFC0134E0EE0FFF1F3A95E1F7E81BB0
:1018C000F90BE40FF51FEA0FFB1F81818D66818301
:1018D0008BE490E0861B970BFC0124E0EE0FFF1FCA
:1018E0002A95E1F7E81BF90BE40FF51FEA0FFB1F40
:1018F00081818D6381838AE490E0861B970BFC01D4
:1019000034E0EE0FFF1F3A95E1F7E81BF90BE40F07
:10191000F51FEA0FFB1F81818C63818389E490E0CE
:10192000861B970BFC0124E0EE0FFF1F2A95E1F7C1
:10193000E81BF90BE40FF51FEA0FFB1F81818D6394
:10194000818388E490E0861B970BFC0134E0EE0F66
:10195000FF1F3A95E1F7E81BF90BE40FF51FEA0FBB
:10196000FB1F81818D66818387E490E0861B970B46
:10197000FC0124E0EE0FFF1F2A95E1F7E81BF90BAD
:10198000E40FF51FEA0FFB1F81818E6B818386E4D4
:1019900090E0861B970BFC0134E0EE0FFF1F3A9599
:1019A000E1F7E81BF90BE40FF51FEA0FFB1F81813C
:1019B0008861818385E490E0861B970BFC0124E01D
:1019C000EE0FFF1F2A95E1F7E81BF90BE40FF51F57
:1019D000EA0FFB1F81818E60818308952F923F92D1
:1019E0004F925F926F927F928F929F92AF92BF922F
:1019F000CF92DF92EF92FF920F931F93DF93CF93DB
:101A000000D000D0CDB7DEB770E02FE430E0261B69
:101A1000370B90E0A0E56A2EA1E07A2E6C01CC0C89
:101A2000DD1CC80ED91EC901E4E0880F991FEA9594
:101A3000E1F7821B930B8C0D9D1D860D971D9A83DC
:101A40008983FC018081896380838EE490E0861B1A
:101A5000970B9C0154E0220F331F5A95E1F7281B86
:101A6000390B2C0D3D1D260D371D3C832B83F901B1
:101A70008081896780838DE490E0861B970B1C0131
:101A800044E0220C331C4A95E1F7281A390A2C0C41
:101A90003D1C260C371CF10180818A6780838CE411
:101AA00090E0861B970B2C0134E0440C551C3A95B2
:101AB000E1F7481A590A4C0C5D1C460C571CF20100
:101AC00080818E6680838BE490E0861B970B4C01AF
:101AD00024E0880C991C2A95E1F7881A990A8C0C45
:101AE0009D1C860C971CF40180818C6E80838AE497
:101AF00090E0861B970B5C0104E0AA0CBB1C0A95C6
:101B0000E1F7A81AB90AAC0CBD1CA60CB71CF5016C
:101B100080818A6F808389E490E0861B970B7C012B
:101B200014E0EE0CFF1C1A95E1F7E81AF90AEC0C28
:101B3000FD1CE60CF71CF70180818A6F808388E426
:101B400090E0861B970B8C01B4E0000F111FBA9533
:101B5000E1F7081B190B0C0D1D1D060D171DF801D3
:101B600080818C6E808387E490E0861B970BAC01AC
:101B7000A4E0440F551FAA95E1F7481B590B4C0DE3
:101B80005D1D460D571DFA0180818E66808386E4B7
:101B900090E0861B970B9C01F4E0220F331FFA950F
:101BA000E1F7281B390B2C0D3D1D260D371DF901C2
:101BB00080818A67808385E490E0861B970BDC0137
:101BC000E4E0AA0FBB1FEA95E1F7A81BB90BAC0D27
:101BD000BD1DA60DB71D8C9189678C9384E490E0A0
:101BE000861B970BBC01F4E0660F771FFA95E1F7AF
:101BF000681B790B6C0D7D1D660D771DFB018081C7
:101C000089638083E981FA81828189638283EB81A0
:101C1000FC81828189678283F10182818A67828364
:101C2000F20182818E668283F40182818C6E8283CE
:101C3000F50182818A6F8283F70182818A6F8283B4
:101C4000F80182818C6E8283FA0182818E668283A2
:101C5000F90182818A67828312968C911297896733
:101C600012968C93FB018281896382830F900F907F
:101C70000F900F90CF91DF911F910F91FF90EF90F8
:101C8000DF90CF90BF90AF909F908F907F906F909C
:101C90005F904F903F902F90089570E02FE430E0D8
:101CA000261B370B90E0A0E5B1E0AC01440F551FB7
:101CB000480F591FF90184E0EE0FFF1F8A95E1F7E5
:101CC000E21BF30BE40FF51FEA0FFB1F8281896112
:101CD00082838EE490E0861B970BFC0124E0EE0FDC
:101CE000FF1F2A95E1F7E81BF90BE40FF51FEA0F38
:101CF000FB1F82818A6382838DE490E0861B970BB1
:101D0000FC0134E0EE0FFF1F3A95E1F7E81BF90BF9
:101D1000E40FF51FEA0FFB1F82818D6682838CE43E
:101D200090E0861B970BFC0124E0EE0FFF1F2A9525
:101D3000E1F7E81BF90BE40FF51FEA0FFB1F8281A7
:101D40008A6F82838BE490E0861B970BFC0134E062
:101D5000EE0FFF1F3A95E1F7E81BF90BE40FF51FB3
:101D6000EA0FFB1F82818A6F82838AE490E0861BE0
:101D7000970BFC0124E0EE0FFF1F2A95E1F7E81B0B
:101D8000F90BE40FF51FEA0FFB1F82818D6682833A
:101D900089E490E0861B970BFC0134E0EE0FFF1FF7
:101DA0003A95E1F7E81BF90BE40FF51FEA0FFB1F6B
:101DB00082818A63828388E490E0861B970BFC0112
:101DC00024E0EE0FFF1F2A95E1F7E81BF90BE40F63
:101DD000F51FEA0FFB1F82818961828308952FE539
:101DE00031E080E090E04FEF0DC0408341833396B7
:101DF000E217F307D1F701969F01215F3F4F883229
:101E0000910559F0FC01A4E0EE0FFF1FAA95E1F740
:101E1000E81BF90BE05BFE4FE8CFE4EBF3E08FEF5C
:101E2000808381833F9694E0ED31F907C9F78EEF07
:101E3000808381838787808B7E968FEF80838183E9
:101E40003F9695E0E538F907C9F78EEF80838183E7
:101E50008787808B7E968FEF808381833F9696E085
:101E6000EC30F907C9F78093B1038093B2038093F4
:101E7000C0038093C1038093CF038093D0038EEF80
:101E80008093DE038093DF038093ED038093EE0362
:101E90008CEF8093FC038093FD038CE780930B040D
:101EA00080930C0488E380931A0480931B0480932E
:101EB000290480932A0488E78093380480933904A6
:101EC000E7E4F4E080EF808381833F9694E0E23999
:101ED000F907C9F780EE808381833F9695E0E83269
:101EE000F907C9F780EF808381833F9695E0E33758
:101EF000F907C9F788E78083818388E38787808B28
:101F0000868F878F8CE785A786A78CEF84AF85AFF8
:101F10008EEF8093BE058093BF058093CD0580939F
:101F2000CE059FEF9093DC059093DD059093EB0534
:101F30009093EC059093FA059093FB0527EE209380
:101F4000AE032093AF0381E88093BD038093BE036B
:101F50008093E8058093E9052093F7052093F80521
:101F60009093AB039093AC039093BA039093BB030D
:101F70009093C9039093CA038FE78093D80380930B
:101F8000D9038093E7038093E8038FE38093F603FC
:101F90008093F70380930504809306048FE1809378
:101FA0001404809315048093230480932404809365
:101FB000320480933304E1E4F4E08FE08083818392
:101FC0003F9694E0EC38F907C9F787E08083818376
:101FD0003F9695E0E232F907C9F78FE0808381836D
:101FE0003F9695E0ED36F907C9F78FE1808381834D
:101FF0008787808B868F878F8FE385A786A784AF9F
:1020000085AF8FE78093B8058093B9058093C705A6
:102010008093C8058FEF8093D6058093D705809372
:10202000E5058093E6058093F4058093F505E8EADD
:10203000F3E0808381833F9696E0E030F907C9F7AB
:1020400008956F927F928F929F92AF92BF92CF929C
:10205000DF92EF92FF920F931F93CF93DF9390E065
:1020600070E0F0E5AF2EF1E0BF2E7B01EE0CFF1C1F
:10207000E60EF71E6C0164E0CC0CDD1C6A95E1F7FE
:10208000C81AD90ACE0CDF1CCA0CDB1C5CE3652E17
:10209000E60168829C012F5F3F4F890144E0000FF9
:1020A000111F4A95E1F7021B130B0E0D1F1D0A0DA0
:1020B0001B1D2EE7722EF80170829C012E5F3F4F90
:1020C000B901B4E0660F771FBA95E1F7621B730B95
:1020D0006E0D7F1D6A0D7B1D88248A94EB0188821A
:1020E0009C012D5F3F4FA901A4E0440F551FAA9505
:1020F000E1F7421B530B4E0D5F1D4A0D5B1DF7EAC6
:102100009F2EFA0190829C012C5F3F4FD901E4E0A1
:10211000AA0FBB1FEA95E1F7A21BB30BAE0DBF1DC3
:10212000AA0DBB1D23EC2C930596FC0134E0EE0FA9
:10213000FF1F3A95E1F7E81BF90BEE0DFF1DEA0DC5
:10214000FB1D81E88083E6016982E8017982EB0169
:102150008982EA01998211962C938183DF91CF9134
:102160001F910F91FF90EF90DF90CF90BF90AF90B5
:102170009F908F907F906F9008956F927F928F9233
:102180009F92AF92BF92CF92DF92EF92FF920F9306
:102190001F93CF93DF9390E09C01295F3F4F70E046
:1021A000F0E5AF2EF1E0BF2E7B01EE0CFF1CE60E3A
:1021B000F71E690164E0CC0CDD1C6A95E1F7C21AD8
:1021C000D30ACE0CDF1CCA0CDB1C5CE3652EE601D7
:1021D00068829C012A5F3F4F890144E0000F111F74
:1021E0004A95E1F7021B130B0E0D1F1D0A0D1B1D57
:1021F0002EE7722EF80170829C012B5F3F4FB901D0
:10220000B4E0660F771FBA95E1F7621B730B6E0D92
:102210007F1D6A0D7B1D88248A94EB0188829C01B6
:102220002C5F3F4FA901A4E0440F551FAA95E1F789
:10223000421B530B4E0D5F1D4A0D5B1DF7EA9F2E8F
:10224000FA0190829C012D5F3F4FD901E4E0AA0F73
:10225000BB1FEA95E1F7A21BB30BAE0DBF1DAA0D84
:10226000BB1D23EC2C930296FC0134E0EE0FFF1F04
:102270003A95E1F7E81BF90BEE0DFF1DEA0DFB1D8A
:1022800081E88083E6016982E8017982EB01898235
:10229000EA01998211962C938183DF91CF911F914E
:1022A0000F91FF90EF90DF90CF90BF90AF909F90F5
:1022B0008F907F906F9008953F924F925F926F92B0
:1022C0007F928F929F92AF92BF92CF92DF92EF92C6
:1022D000FF920F931F93CF93DF9390E070E0F0E5B0
:1022E0006F2EF1E07F2E6B01CC0CDD1CC60ED71ECD
:1022F0004C0164E0880C991C6A95E1F7881A990AE8
:102300008C0C9D1C860C971C5CE3352EE4013882F6
:102310009C012F5F3F4F590144E0AA0CBB1C4A951A
:10232000E1F7A21AB30AAC0CBD1CA60CB71C0EE751
:10233000402EF50140829C012E5F3F4F790114E051
:10234000EE0CFF1C1A95E1F7E21AF30AEC0CFD1CE7
:10235000E60CF71C55245A94E70158829C012D5F26
:102360003F4F8901B4E0000F111FBA95E1F7021B3E
:10237000130B0C0D1D1D060D171DF80150829C013D
:102380002C5F3F4FB901A4E0660F771FAA95E1F7D4
:10239000621B730B6C0D7D1D660D771DEB01588262
:1023A0009C012B5F3F4FA901F4E0440F551FFA95A4
:1023B000E1F7421B530B4C0D5D1D460D571DFA01F5
:1023C00050829C012A5F3F4FD901E4E0AA0FBB1F56
:1023D000EA95E1F7A21BB30BAC0DBD1DA60DB71D11
:1023E0004C920796FC0124E0EE0FFF1F2A95E1F7BF
:1023F000E81BF90BEC0DFD1DE60DF71D3082E40125
:102400003982E5014982E7015982E8015982EB01ED
:102410005982EA01598211964C923182DF91CF9113
:102420001F910F91FF90EF90DF90CF90BF90AF90F2
:102430009F908F907F906F905F904F903F90089506
:10244000A82FB0E0179670E0AB01440F551F460F60
:10245000571F0FC0F90194E0EE0FFF1F9A95E1F7A7
:10246000E21BF30BE40FF51FE05BFE4F10821182BD
:102470008F5F282F30E0A217B30764F708950895FF
:10248000E3E6F1E0DC0161E070E010821786128281
:102490001382118A128A15821682148A158A42E0E2
:1024A00050E0942F91508C91891768F0CB01042E45
:1024B00002C0880F991F0A94E2F72081282B2083FD
:1024C0002785282B27874F5F5F4F4830510549F7F5
:1024D00040E050E0942F995F8C91891768F0CB0110
:1024E000042E02C0880F991F0A94E2F72381282B3B
:1024F00023832289282B228B4F5F5F4F4630510563
:1025000049F78C918D3060F0838180648383828170
:102510008064828382898064828B81898064818BDC
:102520008C918E3060F083818068838382818068A3
:10253000828382898068828B81898068818B40E078
:1025400050E0942F915F8C91891798F09B01042E95
:1025500002C0220F331F0A94E2F78681822B868302
:102560008581822B85838589822B858B8489822B2B
:10257000848B4F5F5F4F4330510519F743E050E0C4
:10258000942F915F8C91891768F0CB01042E02C0C3
:10259000880F991F0A94E2F72581282B2583248927
:1025A000282B248B4F5F5F4F4630510549F7BD966E
:1025B000119685E0E83CF80709F067CF8CE291E0DE
:1025C00024EF31E0F9013197F1F70197D9F7089538
:1025D0008F929F92AF92BF92CF92DF92EF92FF9233
:1025E0000F931F93CF93DF93FB0190819F5F9083A5
:1025F000882311F083E301C08CE105E010E0E82EB0
:10260000FF24D70134E0AA0FBB1F3A95E1F7AE19BA
:10261000BF09A05BBE4FBD01665F7F4F21E0A22EC8
:10262000B12C67010894C11CD11CF60194E0EE0F97
:10263000FF1F9A95E1F7EC19FD09E05BFE4F8AE078
:10264000882E912C8E0E9F1EEB0148819501002E45
:1026500002C0220F331F0A94E2F7842F90E08223F6
:102660009323880F991F482B4883E4014881842FC6
:1026700090E082239323880F991F482B488320954D
:10268000EB01888182238883E401888128232883C1
:10269000015010408FEF0F3F1807B1F617968C913D
:1026A0001797881F8827881F1A969C911A97892B3D
:1026B0001A968C931A978781881F8827881F92857E
:1026C000892B828717968C9117978F7717968C9303
:1026D00087818F77878306E010E0D70134E0AA0F67
:1026E000BB1F3A95E1F7AE19BF09A05BBE4FBD0114
:1026F000695F7F4F21E0A22EB12CF60194E0EE0F2E
:10270000FF1F9A95E1F7EC19FD09E05BFE4F87E0AA
:10271000882E912C8E0E9F1EEB0148819501002E74
:1027200002C0220F331F0A94E2F7842F90E0822325
:102730009323880F991F482B4883E4014881842FF5
:1027400090E082239323880F991F482B488320957C
:10275000EB01888182238883E401888128232883F0
:10276000015010408FEF0F3F1807B1F614968C916F
:102770001497881F8827881F17969C911797892B75
:1027800017968C9317978481881F8827881F9781B5
:10279000892B878314968C9114978F7714968C933A
:1027A00084818F77848366E070E0D70104E0AA0F0C
:1027B000BB1F0A95E1F7AE19BF09AC5ABE4FC1E085
:1027C000D0E0F60114E0EE0FFF1F1A95E1F7EC19C7
:1027D000FD09EC5AFE4F4C919E01062E02C0220FBD
:1027E000331F0A94E2F7842F90E082239323880F0B
:1027F000991F482B4C934081842F90E08223932390
:10280000880F991F482B408320958C9182238C93AD
:10281000808128232083615070406623E1F6DF9198
:10282000CF911F910F91FF90EF90DF90CF90BF90CD
:10283000AF909F908F9008958F929F92AF92BF928A
:10284000CF92DF92EF92FF920F931F93CF93DF937C
:10285000FB01908191509083882311F083E301C0A4
:102860008CE102E010E0E82EFF24D70134E0AA0F4B
:10287000BB1F3A95E1F7AE19BF09A05BBE4FBD0182
:102880006C5F7F4F21E0A22EB12C67010894C11C20
:10289000D11CF60194E0EE0FFF1F9A95E1F7EC19B9
:1028A000FD09E05BFE4F84E0882E912C8E0E9F1E6A
:1028B000EB0148819501002E02C0220F331F0A94BC
:1028C000E2F7842F90E08223932395958795482BF8
:1028D0004883E4014881842F90E0822393239595D7
:1028E0008795482B48832095EB0188818223888334
:1028F000E4018881282328830F5F1F4F08301105CA
:10290000B9F617968C91179787958827879514960F
:102910009C911497892B14968C9314978781879593
:10292000882787959481892B848317968C91179794
:102930008E7F17968C9387818E7F878301E010E0CE
:10294000D70134E0AA0FBB1F3A95E1F7AE19BF09D2
:10295000A05BBE4FBD01695F7F4F21E0A22EB12C6D
:10296000F60194E0EE0FFF1F9A95E1F7EC19FD09CF
:10297000E05BFE4F87E0882E912C8E0E9F1EEB01B0
:1029800048819501002E02C0220F331F0A94E2F7FE
:10299000842F90E08223932395958795482B488335
:1029A000E4014881842F90E08223932395958795B5
:1029B000482B48832095EB01888182238883E4019A
:1029C0008881282328830F5F1F4F08301105B9F62F
:1029D0001A968C911A9787958827879517969C91B8
:1029E0001797892B17968C93179782858795882739
:1029F00087959781892B87831A968C911A978E7F5A
:102A00001A968C9382858E7F828761E070E0D70171
:102A100084E0AA0FBB1F8A95E1F7AE19BF09A65A39
:102A2000BE4FC1E0D0E0F60104E0EE0FFF1F0A95B3
:102A3000E1F7EC19FD09E65AFE4F4C919E01062E76
:102A400002C0220F331F0A94E2F7842F90E0822302
:102A5000932395958795482B4C934081842F90E044
:102A60008223932395958795482B408320958C91BD
:102A700082238C938081282320836F5F7F4F673070
:102A80007105D9F6DF91CF911F910F91FF90EF90D3
:102A9000DF90CF90BF90AF909F908F9008950F934D
:102AA0001F93CF93DF93EC01DB01BA0189014C91B5
:102AB000288130E0842F86958695869590E0FC01EC
:102AC000EE0FFF1FE80FF91FC90154E0880F991F8F
:102AD0005A95E1F7821B930BE80FF91FE05BFE4F5D
:102AE000477081E090E002C0880F991F4A95E2F795
:102AF0008095208182238083F8018081FB012081E1
:102B0000882381F19881222399F0913328F48C91C4
:102B10008F3148F49F5F2FC0913329F480E388837D
:102B2000F801108231C0FB01108288818F5F36C0AE
:102B3000913328F48C918A3078F09F5F38C09133BC
:102B400059F480E38883F80110828C918930F1F583
:102B500081E0FB01808342C081E0FB0180838881AA
:102B60008F5F3BC098812223E1F09F3130F08C9140
:102B70008F3180F49150988331C09E3159F48FE1A8
:102B8000888381E0F80180838C918F3141F5FB01CE
:102B9000108205C0FB0110828881815088838C914E
:102BA00015C09F3130F08C918A3090F0915098830D
:102BB000F6CF9E3169F48FE1888391E0F80190832C
:102BC0008C91893019F4FB01908308C0815008C0B2
:102BD00081E0FB0180838881815088838C918F5FA5
:102BE0008C934C91288130E0842F8695869586952C
:102BF00090E0FC01EE0FFF1FE80FF91FC90154E040
:102C0000880F991F5A95E1F7821B930BE80FF91F64
:102C1000E05BFE4F477081E090E002C0880F991F93
:102C20004A95E2F72081282B2083DF91CF911F91D5
:102C30000F9108952F923F924F925F926F927F92E1
:102C40008F929F92AF92BF92CF92DF92EF92FF92BC
:102C50000F931F93DF93CF9300D000D000D0CDB758
:102C6000DEB789E089838A8388E28B8384E18C8361
:102C70001D821E8287E491E063E04FE122E00E9422
:102C8000F22CA9EFB2E081E08C9319968C931997FE
:102C90001F9694E0A037B907B9F78091F8028E67C4
:102CA0008093F802809107038E6780930703FD01EC
:102CB0007F9780818E678083FD01709780818E670A
:102CC000808300E010E0B3E02B2E312C2C0E3D1E53
:102CD000A4E04A2E512C4C0E5D1EF5E06F2E712C97
:102CE0006C0E7D1EE6E08E2E912C8C0E9D1E72E0E9
:102CF000C72ED12CCC0EDD1E7E010894E11CF11CE8
:102D000064EFA62E61E0B62EC101B201A3019401C9
:102D10000E944F158E819C818823A1F029819217F2
:102D200018F481E0B70113C030E0892F90E00697D6
:102D30002817390724F481E0B7010E94E8128EE5D4
:102D400091E012C02A81921728F480E0B6010E9417
:102D50001C14F5CF30E0892F90E00697281739072B
:102D600074F780E0B601E9CFF5013197F1F70197EB
:102D7000D9F70F5F1F4F81E0043F180729F6269609
:102D80000FB6F894DEBF0FBECDBFCF91DF911F917C
:102D90000F91FF90EF90DF90CF90BF90AF909F90FA
:102DA0008F907F906F905F904F903F902F900895FD
:102DB000EF92FF920F931F93CF93DF93EE24FF24A4
:102DC00023C00E945D2D182F0E945D2D082F0E94A8
:102DD0005D2D188319831A830B830C830D838E83D7
:102DE0008F83888719871A871B870C870D870E8723
:102DF0002F9686E0C030D80721F70894E11CF11C1B
:102E000088ECE816F10419F0C0E5D1E0DACFDF91E3
:102E1000CF911F910F91FF90EF9008954F925F9285
:102E20006F927F928F929F92AF92BF92CF92DF92DA
:102E3000EF92FF920F931F93DF93CF93CDB7DEB73F
:102E400069970FB6F894DEBF0FBECDBF4E01089450
:102E5000811C911CF401CE014A961192E817F907E2
:102E6000E1F7E2E5F1E090EC83E0908384873F9620
:102E700026E0E230F207C9F7DD2481E0A82EB12C6C
:102E800004E1C02E11E1412E512C4C0E5D1E3E017D
:102E90000894611C711C0E945D2D8C010E945D2DA7
:102EA00008231923780100E010E0F40140E050E02D
:102EB000C501042E02C0880F991F0A94E2F7AA27C1
:102EC00097FDA095BA2F8E219F21A023B1232081A9
:102ED0000097A105B10531F0213110F42C5F05C038
:102EE000C08204C0222311F0215020834F5F5F4F26
:102EF000319640315105E1F6F20140E050E0C50164
:102F0000042E02C0880F991F0A94E2F7AA2797FDA2
:102F1000A095BA2F8E219F21A023B1232081009755
:102F2000A105B10531F0213110F42C5F05C0C0823C
:102F300004C0222311F0215020834F5F5F4F319650
:102F400049305105E1F6C3010E944012D3948AEF43
:102F5000D81609F0A0CF69960FB6F894DEBF0FBE61
:102F6000CDBFCF91DF911F910F91FF90EF90DF9038
:102F7000CF90BF90AF909F908F907F906F905F9019
:102F80004F900895EF92FF920F931F93CF93DF938B
:102F90007C018B01CA0161E040E022E00E94F22C3A
:102FA000C80162E040E021E00E94F22CC70163E02A
:102FB00040E020E00E94F22C00E094EFE92E91E046
:102FC000F92EC0E5D3EC81E062E00E940F1C8CE298
:102FD00091E0F7013197F1F70197D9F781E062E0CD
:102FE0000E940F1C82E061E00E940F1CCE0101973D
:102FF000F1F781E062E00E940F1C82E061E00E9434
:103000000F1C83E060E00E940F1CCE010197F1F7D6
:103010000F5F0639C1F6DF91CF911F910F91FF909D
:10302000EF9008958F929F92AF92BF92CF92DF92CE
:10303000EF92FF920F931F93CF93DF93E82EF42E1E
:103040008901C62FD0E041E0842E912C8C229D2254
:1030500060FF06C0C9016E2D4F2D20E00E94F22CAA
:1030600032E0A32EB12CAC22BD22C1FF06C0C801A4
:103070006E2D4F2D21E00E94F22C24E0C22ED12C87
:10308000CC22DD22C2FF06C0C8016E2D4F2D22E0EA
:103090000E94F22C10E0C4EFD1E08114910421F0E1
:1030A0008E2D60E00E940F1CA114B10421F08E2D22
:1030B00061E00E940F1CC114D10421F08E2D62E04A
:1030C0000E940F1C8CE291E0FE013197F1F701970D
:1030D000D9F71F5F183709F7DF91CF911F910F9133
:1030E000FF90EF90DF90CF90BF90AF909F908F9028
:1030F0000895EF92FF920F931F93CF93DF937C017C
:103100008B01CA0161E040E022E00E94F22CC8017C
:1031100062E040E020E00E94F22CC70163E040E062
:1031200022E00E94F22C00E0C4EFD1E081E062E0F6
:103130000E940F1C82E060E00E94341C83E062E089
:103140000E940F1C8EE591E0FE013197F1F7019787
:10315000D9F70F5F0A3F51F7DF91CF911F910F9180
:10316000FF90EF90089584E49AE00E94020C8AEFA9
:103170006EE10E94541C84E66EE10E94541C089586
:10318000BF92CF92DF92EF92FF920F931F93B82ED0
:103190007B016A018901C90161E040E020E00E94F1
:1031A000F22CC80161E040E021E00E94F22CC8014D
:1031B00061E040E022E00E94F22CC60162E040E0C3
:1031C00022E00E94F22CC70163E040E020E00E9470
:1031D000F22CC70163E040E021E00E94F22CC7011D
:1031E00063E040E022E00E94F22CBB2029F48AEF49
:1031F00069E10E94541C04C08AEF69E10E949C1C92
:103200001F910F91FF90EF90DF90CF90BF900895A6
:1032100020E030E040E050E0AFEF61E170E010C04E
:10322000A083E85AFD4FA083E555F240E817F9075F
:10323000B9F72F5F3F4F4F5050402431310581F097
:10324000F901B4E0EE0FFF1FBA95E1F7E21BF30BB3
:10325000EE5AFE4FCB01841B950B805B9E4FE0CF57
:103260008AEF66E00E949C1C089583E060E00E9463
:10327000130C83E06DE00E94130C83E06AE10E946E
:10328000130C83E067E20E94130C82E060E00E946E
:10329000EE0C82E06DE00E94EE0C82E06AE10E949A
:1032A000EE0C82E067E20E94EE0C81E062E00E9498
:1032B0004D0E81E06FE00E944D0E81E06CE10E94B6
:1032C0004D0E81E069E20E944D0E8EE168E20E949F
:1032D0009C1C8EE168E20E94541C8EE168E20E9410
:1032E0009C1C8EE168E20E94541C089584EE90E0DC
:1032F0000E94020C8EE160E00E94541C8AEF67E19C
:103300000E949C1C089584E995E00E94020C88E7C5
:1033100063E20E949C1C089584EF9EE00E94020CD0
:103320008FEF6EE10E949C1C0895BF92CF92DF92B6
:10333000EF92FF920F931F93CF93DF93EE24FF241E
:10334000BB24BA942AC0B882BB82BE82B986BC862E
:1033500081E00E94810A2F96CC15DD05A1F7DD24BE
:10336000F8011082138216821186148681E00E9471
:10337000810AD394015F1F4FF0E5DF1689F70894A7
:10338000E11CF11C83E0E816F10439F48FE591E0CB
:1033900000E010E0FF24FA941CC08701005B1E4F80
:1033A000E80130E0C32E36E0D32ECE0CDF1CCBCFAD
:1033B000F882F982FA822396C817D907C9F781E003
:1033C0000E94810A0F5F1F4FCE010F960832110530
:1033D00059F0E80124E0CC0FDD1F2A95E1F7C01B6E
:1033E000D10BC05BDE4FE4CF8AEF6AE00E94541C31
:1033F000DF91CF911F910F91FF90EF90DF90CF90D1
:10340000BF9008952F923F925F926F927F928F921A
:103410009F92AF92BF92CF92DF92EF92FF920F9363
:103420001F93CF93DF935524E1E06E2E712C77E04C
:10343000272E312CC2C020838C933F961F96E8150F
:10344000F905C9F782E00E94810A0894E11CF11C89
:1034500048E0E416F104A9F0C3010E2C02C0880F65
:10346000991F0A94E2F7282FC1018E199F09A30121
:1034700002C0440F551F8A95E2F7CA01F601D80130
:10348000DACFDE01AA0FBB1FAC0FBD1FAE5ABE4F75
:10349000F501EE0FFF1FEA0DFB1DEF5AFE4F1C92C8
:1034A00010821F963F96A815B905C9F7219643E0EB
:1034B000842E912C8A0E9B1E0894A108B108C53059
:1034C000D10551F431E0832E36E0932EC0E0D0E0F8
:1034D00024E0A22EB12C5AC0EE24FF246E01CC0CA5
:1034E000DD1CCC0EDD1E82E591E0C80ED91E8501E3
:1034F000000F111F0A0D1B1D0F5A1E4FADCF208349
:103500008C933F961F96E815F905C9F782E00E9453
:10351000810A0894E11CF11C98E0E916F104A9F075
:10352000C3010E2C02C0880F991F0A94E2F7282FBE
:10353000C1018E199F09A30102C0440F551F8A952E
:10354000E2F7CA01F601D801DACFDE01AA0FBB1FEC
:10355000AC0FBD1FAF5ABE4FF501EE0FFF1FEA0DB6
:10356000FB1DEE5AFE4F1C9210821F963F96A81527
:10357000B905C9F72196E3E08E2E912C8A0E9B1E89
:103580000894A108B108C530D10599F0EE24FF24B4
:103590006E01CC0CDD1CCC0EDD1E81E591E0C80E69
:1035A000D91E8501000F111F0A0D1B1D0E5A1E4F3B
:1035B000B7CF539492E0591651F052E0852E56E061
:1035C000952EC0E0D0E044E0A42EB12C85CFDF9151
:1035D000CF911F910F91FF90EF90DF90CF90BF9010
:1035E000AF909F908F907F906F905F903F902F90C3
:1035F00008950F931F93CF93DF9342EF51E02AE09A
:1036000030E078E16CE319C070836C93668F5E964E
:103610007C935E977183608B678F5F967C935F97D7
:1036200033961396E417F50779F7205F3F4FAF0104
:1036300040515F4F2A343105B9F0F90104E0EE0F33
:10364000FF1F0A95E1F7E21BF30BED5AFE4FC9018C
:103650000196DC0114E0AA0FBB1F1A95E1F7A81B25
:10366000B90BAD5ABE4FD0CFCFE0D0E00C2F1C2FFE
:103670001F50812F63E00E94211088E00E94810A80
:103680009E01285030400DC0FC0144E0EE0FFF1FAA
:103690004A95E1F7E81BF90BE05BFE4F11861286B5
:1036A0001F5F812F90E02817390774F7102F1750EC
:1036B000812F63E00E945C1188E00E94810A0DC0A6
:1036C000FC0134E0EE0FFF1F3A95E1F7E81BF90B20
:1036D000E05BFE4F118612861F5F812F90E0C817B6
:1036E000D90774F76096CF35D10509F0BFCF88E0D0
:1036F0000E94810AC7E4D0E00C2F1C2F1750812FA5
:1037000062E00E94BD1088E00E94810A0DC0FC01A9
:1037100024E0EE0FFF1F2A95E1F7E81BF90BE05BB1
:10372000FE4F168217821F5F812F90E0C817D907BE
:1037300074F7102F1F50812F62E00E945C1188E007
:103740000E94810A212F30E0295F3F4F0DC0FC010C
:1037500004E0EE0FFF1F0A95E1F7E81BF90BE05BB1
:10376000FE4F168217821F5F812F90E028173907BE
:1037700074F76097C730D10509F0BECF88E00E948A
:10378000810ACFE0D0E00C2F1C2F1F50812F61E069
:103790000E94211088E00E94810A9E01285030403A
:1037A0000DC0FC01B4E0EE0FFF1FBA95E1F7E81B76
:1037B000F90BE05BFE4F138214821F5F812F90E0B4
:1037C0002817390774F7102F1750812F61E00E94D6
:1037D0005C1188E00E94810A0DC0FC01A4E0EE0F9C
:1037E000FF1FAA95E1F7E81BF90BE05BFE4F138280
:1037F00014821F5F812F90E0C817D90774F7609675
:10380000CF35D10509F0BFCF0E94EF0E84E66AE004
:103810000E94541CDF91CF911F910F910895282F82
:1038200030E070E0C901880F991F820F931FFB01E0
:10383000E80FF91FEF50FA4F4081FB01E80FF91F25
:10384000EE51FA4F9FE48081878791503F979923EB
:10385000D1F7F901EE0FFF1FE20FF31FE60FF71F7D
:10386000E05BFE4F40830895282F30E0A62FB0E0A4
:10387000F901EE0FFF1FE20FF31FEA0FFB1FE05BE2
:10388000FE4F408190E0878580839F5F3F969F3405
:10389000D1F7C901880F991F820F931FA80FB91F75
:1038A000AF50BA4F4C930895EF92FF920F931F932E
:1038B000CF93DF93E82EF62E40E008E813E12CC00A
:1038C000688179815A81F901EE0FFF1FE20FF31F22
:1038D000EE51FA4F9FE4808187878181808B8281BE
:1038E000818B91503F979923B1F76C9311967C93FC
:1038F000119712965C9312972F5F3F4F2396139662
:1039000025303105E9F620E004C0C8010197F1F740
:103910002F5F2F15D0F34F5F4E1538F4C1EFD5E070
:10392000A0E5B1E020E030E0CBCFDF91CF911F9157
:103930000F91FF90EF900895EF92FF920F931F93D6
:10394000CF93DF93E82EF62E40E008E813E12CC079
:10395000688179815A81F901EE0FFF1FE20FF31F91
:10396000E05BFE4F90E08785808380898183818939
:1039700082839F5F3F969F34B1F76C9311967C933F
:10398000119712965C9312972F5F3F4F23961396D1
:1039900025303105E9F620E004C0C8010197F1F7B0
:1039A0002F5F2F15D0F34F5F4E1538F4C0E5D1E0EF
:1039B000A1EFB5E020E030E0CBCFDF91CF911F91B8
:1039C0000F91FF90EF9008951F93362F122F90E0E4
:1039D000FC01B197EA33F10510F00C94F02CE85C8F
:1039E000FF4FEE0FFF1F0590F491E02D0994642F17
:1039F00070E08FE490E0861B970B232F30E0A12F1F
:103A0000B0E0FC0144E0EE0FFF1F4A95E1F7E81B30
:103A1000F90BA901440F551F420F531FE40FF51F67
:103A2000E05BFE4FEA0FFB1F80818E6380838EE494
:103A300090E0861B970BFC0134E0EE0FFF1F3A95D8
:103A4000E1F7E81BF90BE40FF51FE05BFE4FEA0F0F
:103A5000FB1F8081856480838DE490E0861B970B3B
:103A6000FC0124E0EE0FFF1F2A95E1F7E81BF90B9C
:103A7000E40FF51FE05BFE4FEA0FFB1F80818964B6
:103A800080838CE490E0861B970BFC0114E0EE0F22
:103A9000FF1F1A95E1F7E81BF90BE40FF51FE05B38
:103AA000FE4FEA0FFB1F808181650C940828642F6C
:103AB00070E08EE490E0861B970B232F30E0A12F5F
:103AC000B0E0FC0144E0EE0FFF1F4A95E1F7E81B70
:103AD000F90BA901440F551F420F531FE40FF51FA7
:103AE000E05BFE4FEA0FFB1F8081816280838DE4E3
:103AF00090E0861B970BFC0114E0EE0FFF1F1A9558
:103B0000E1F7E81BF90BE40FF51FE05BFE4FEA0F4E
:103B1000FB1F80818F6780838CE490E00C94C42627
:103B2000642F70E08FE490E0861B970B232F30E02A
:103B3000A12FB0E0FC0144E0EE0FFF1F4A95E1F732
:103B4000E81BF90BA901440F551F420F531FE40F47
:103B5000F51FE05BFE4FEA0FFB1F808181628083CF
:103B60008EE490E0861B970BFC0134E0EE0FFF1F04
:103B70003A95E1F7E81BF90BE40FF51FE05BFE4F08
:103B8000EA0FFB1F8081836480838DE490E0861BB5
:103B9000970BFC0124E0EE0FFF1F2A95E1F7E81BCD
:103BA000F90BE40FF51FE05BFE4FEA0FFB1F80816E
:103BB000856480838CE490E0861B970BFC0114E005
:103BC000EE0FFF1F1A95E1F7E81BF90BE40FF51F45
:103BD000E05BFE4FEA0FFB1F808189640C9464292F
:103BE000642F70E08FE490E0861B970B232F30E06A
:103BF000A12FB0E0FC0144E0EE0FFF1F4A95E1F772
:103C0000E81BF90BA901440F551F420F531FE40F86
:103C1000F51FE05BFE4FEA0FFB1F8081826480830B
:103C20008EE490E0861B970BFC0134E0EE0FFF1F43
:103C30003A95E1F7E81BF90BE40FF51FE05BFE4F47
:103C4000EA0FFB1F8081816480838DE490E0861BF6
:103C5000970BFC0124E0EE0FFF1F2A95E1F7E81B0C
:103C6000F90BE40FF51FE05BFE4FEA0FFB1F8081AD
:103C7000816580838CE490E0861B970BFC0114E047
:103C8000EE0FFF1F1A95E1F7E81BF90BE40FF51F84
:103C9000E05BFE4FEA0FFB1F808189660C94D829F8
:103CA000642F70E08FE490E0861B970B232F30E0A9
:103CB000A12FB0E0FC0144E0EE0FFF1F4A95E1F7B1
:103CC000E81BF90BA901440F551F420F531FE40FC6
:103CD000F51FE05BFE4FEA0FFB1F80818C60808345
:103CE0008EE490E0861B970BFC0134E0EE0FFF1F83
:103CF0003A95E1F7E81BF90BE40FF51FE05BFE4F87
:103D0000EA0FFB1F8081846180838DE490E0861B35
:103D1000970BFC0124E0EE0FFF1F2A95E1F7E81B4B
:103D2000F90BE40FF51FE05BFE4FEA0FFB1F8081EC
:103D3000846280838CE490E0861B970BFC0114E086
:103D4000EE0FFF1F1A95E1F7E81BF90BE40FF51FC3
:103D5000E05BFE4FEA0FFB1F80818F6780838BE45F
:103D600090E0861B970BFC0164E0EE0FFF1F6A9545
:103D7000E1F7E81BF90BE40FF51FE05BFE4FEA0FDC
:103D8000FB1F808184600C94EF2C642F70E08FE423
:103D900090E0861B970B232F30E0A12FB0E0FC01B1
:103DA00044E0EE0FFF1F4A95E1F7E81BF90BA9016C
:103DB000440F551F420F531FE40FF51FE05BFE4FEA
:103DC000EA0FFB1F8081826780838EE490E0861B70
:103DD000970BFC0134E0EE0FFF1F3A95E1F7E81B6B
:103DE000F90BE40FF51FE05BFE4FEA0FFB1F80812C
:103DF000816580838DE490E0861B970BFC0124E0B5
:103E0000EE0FFF1F2A95E1F7E81BF90BE40FF51FF2
:103E1000E05BFE4FEA0FFB1F8081816580838CE4AD
:103E200090E0861B970BFC0114E0EE0FFF1F1A9524
:103E3000E1F7E81BF90BE40FF51FE05BFE4FEA0F1B
:103E4000FB1F8081816580838BE490E0861B970B4C
:103E5000FC0164E0EE0FFF1F6A95E1F7E81BF90B28
:103E6000E40FF51FE05BFE4FEA0FFB1F80818E64BD
:103E70000C94EF2C642F70E08FE490E0861B970B7E
:103E8000232F30E0A12FB0E0FC0144E0EE0FFF1F34
:103E90004A95E1F7E81BF90BA901440F551F420FA2
:103EA000531FE40FF51FE05BFE4FEA0FFB1F8081FD
:103EB0008E6180838EE490E0861B970BFC0134E0DA
:103EC000EE0FFF1F3A95E1F7E81BF90BE40FF51F22
:103ED000E05BFE4FEA0FFB1F8081896280838DE4E7
:103EE00090E0861B970BFC0124E0EE0FFF1F2A9544
:103EF000E1F7E81BF90BE40FF51FE05BFE4FEA0F5B
:103F0000FB1F8081896480838CE490E0861B970B83
:103F1000FC0114E0EE0FFF1F1A95E1F7E81BF90B07
:103F2000E40FF51FE05BFE4FEA0FFB1F8081896401
:103F300080838BE490E0861B970BFC0164E0EE0F1E
:103F4000FF1F6A95E1F7E81BF90BE40FF51F84C129
:103F5000642F70E08FE490E0861B970B232F30E0F6
:103F6000A12FB0E0FC0144E0EE0FFF1F4A95E1F7FE
:103F7000E81BF90BA901440F551F420F531FE40F13
:103F8000F51FE05BFE4FEA0FFB1F8081806480839A
:103F90008EE490E0861B970BFC0134E0EE0FFF1FD0
:103FA0003A95E1F7E81BF90BE40FF51FE05BFE4FD4
:103FB000EA0FFB1F8081876480838DE490E0861B7D
:103FC000970BFC0124E0EE0FFF1F2A95E1F7E81B99
:103FD000F90BE40FF51FE05BFE4FEA0FFB1F80813A
:103FE000886480838CE490E0861B970BFC0114E0CE
:103FF000EE0FFF1F1A95E1F7E81BF90BE40FF51F11
:10400000E05BFE4FEA0FFB1F8081806580838BE4BD
:1040100090E0861B970BFC0164E0EE0FFF1F6A9592
:10402000E1F7E81BF90BE40FF51FE05BFE4FEA0F29
:10403000FB1F808180660C94EF2C642F70E08FE46E
:1040400090E0861B970B232F30E0A12FB0E0FC01FE
:1040500044E0EE0FFF1F4A95E1F7E81BF90BA901B9
:10406000440F551F420F531FE40FF51FE05BFE4F37
:10407000EA0FFB1F808186634AC2642F70E08FE4E1
:1040800090E0861B970B232F30E0A12FB0E0FC01BE
:1040900044E0EE0FFF1F4A95E1F7E81BF90BA90179
:1040A000440F551F420F531FE40FF51FE05BFE4FF7
:1040B000EA0FFB1F8081806380838EE490E0861B83
:1040C000970BFC0134E0EE0FFF1F3A95E1F7E81B78
:1040D000F90BE40FF51FE05BFE4FEA0FFB1F808139
:1040E000896480838DE490E0861B970BFC0124E0BB
:1040F000EE0FFF1F2A95E1F7E81BF90BE40FF51F00
:10410000E05BFE4FEA0FFB1F8081896480838CE4B3
:1041100090E0861B970BFC0114E0EE0FFF1F1A9531
:10412000E1F7E81BF90BE40FF51FE05BFE4FEA0F28
:10413000FB1F80818A6480838BE490E0861B970B51
:10414000FC0164E0EE0FFF1F6A95E1F7E81BF90B35
:10415000E40FF51FE05BFE4FEA0FFB1F80818C63CD
:104160000C94EF2C8DE490E0841B9109262F30E015
:10417000FC0154E0EE0FFF1F5A95E1F7E81BF90B25
:10418000C901880F991F820F931FE80FF91FE05B89
:10419000FE4FE10FF11D808189670C94EF2C642F95
:1041A00070E08EE490E0861B970B432F50E0A22F27
:1041B000B0E0FC0124E0EE0FFF1F2A95E1F7E81BB9
:1041C000F90B9A01220F331F240F351FE20FF31F43
:1041D000E05BFE4FEA0FFB1F8081866380838DE4E6
:1041E00090E0861B970BFC0144E0EE0FFF1F4A9501
:1041F000E1F7E81BF90BE20FF31FD7C1642F70E062
:104200008EE490E0861B970B432F50E0A22FB0E086
:10421000FC0124E0EE0FFF1F2A95E1F7E81BF90BE4
:104220009A01220F331F240F351FE20FF31FE05BAB
:10423000FE4FEA0FFB1F8081866080838DE490E053
:10424000861B970BFC0154E0EE0FFF1F5A95E1F718
:10425000E81BF90BE20FF31FE05BFE4FEA0FFB1FB9
:10426000808186600C94EF2C642F70E08FE490E0E6
:10427000861B970B232F30E0A12FB0E0FC0144E018
:10428000EE0FFF1F4A95E1F7E81BF90BA901440F58
:10429000551F420F531FE40FF51FE05BFE4FEA0F5F
:1042A000FB1F8081806280838EE490E0861B970BE9
:1042B000FC0124E0EE0FFF1F2A95E1F7E81BF90B44
:1042C000E40FF51FE05BFE4FEA0FFB1F8081806467
:1042D00080838DE490E0861B970BFC0114E0EE0FC9
:1042E000FF1F1A95E1F7E81BF90BE40FF51FE05BE0
:1042F000FE4FEA0FFB1F80818564E9C6642F70E0E2
:104300008FE490E0861B970B232F30E0A12FB0E0C5
:10431000FC0144E0EE0FFF1F4A95E1F7E81BF90BA3
:10432000A901440F551F420F531FE40FF51FE05B17
:10433000FE4FEA0FFB1F8081866380838EE490E04E
:10434000861B970BFC0134E0EE0FFF1F3A95E1F757
:10435000E81BF90BE40FF51FE05BFE4FEA0FFB1FB4
:104360008081896480838DE490E0861B970BFC013B
:1043700024E0EE0FFF1F2A95E1F7E81BF90BE40F8D
:10438000F51FE05BFE4FEA0FFB1F80818565808390
:104390008CE490E0861B970BFC0114E0EE0FFF1FEE
:1043A0001A95E1F7E81BF90BE40FF51FE05BFE4FF0
:1043B000EA0FFB1F8081826280838BE490E0861B82
:1043C000970BFC0164E0EE0FFF1F6A95E1F7E81B15
:1043D000F90BE40FF51FE05BFE4FEA0FFB1F808136
:1043E00085600C94EF2C642F70E08FE490E0861BC6
:1043F000970B232F30E0A12FB0E0FC0144E0EE0F3B
:10440000FF1F4A95E1F7E81BF90BA901440F551F5F
:10441000420F531FE40FF51FE05BFE4FEA0FFB1F37
:1044200080818F6380838EE490E0861B970BFC0174
:1044300034E0EE0FFF1F3A95E1F7E81BF90BE40FAC
:10444000F51FE05BFE4FEA0FFB1F808184648083D1
:104450008DE490E0861B970BFC0124E0EE0FFF1F1C
:104460002A95E1F7E81BF90BE40FF51FE05BFE4F1F
:10447000EA0FFB1F8081846480838CE490E0861BBC
:10448000970BFC0114E0EE0FFF1F1A95E1F7E81BF4
:10449000F90BE40FF51FE05BFE4FEA0FFB1F808175
:1044A000846480838BE490E0861B970BFC0164E0BE
:1044B000EE0FFF1F6A95E1F7E81BF90BE40FF51FFC
:1044C000E05BFE4FEA0FFB1F80818F630C94EF2CA3
:1044D000642F70E08FE490E0861B970B232F30E071
:1044E000A12FB0E0FC0144E0EE0FFF1F4A95E1F779
:1044F000E81BF90BA901440F551F420F531FE40F8E
:10450000F51FE05BFE4FEA0FFB1F80818F67808302
:104510008EE490E0861B970BFC0134E0EE0FFF1F4A
:104520003A95E1F7E81BF90BE40FF51FE05BFE4F4E
:10453000EA0FFB1F8081896480838DE490E0861BF5
:10454000970BFC0124E0EE0FFF1F2A95E1F7E81B13
:10455000F90BE40FF51FE05BFE4FEA0FFB1F8081B4
:10456000896480838CE490E0861B970BFC0114E047
:10457000EE0FFF1F1A95E1F7E81BF90BE40FF51F8B
:10458000E05BFE4FEA0FFB1F8081896480838BE430
:1045900090E0861B970BFC0164E0EE0FFF1F6A950D
:1045A000E1F7E81BF90BE40FF51FE05BFE4FEA0FA4
:1045B000FB1F808186630C94EF2C642F70E08FE4E6
:1045C00090E0861B970B232F30E0A12FB0E0FC0179
:1045D00044E0EE0FFF1F4A95E1F7E81BF90BA90134
:1045E000440F551F420F531FE40FF51FE05BFE4FB2
:1045F000EA0FFB1F80818E6380838EE490E0861B30
:10460000970BFC0134E0EE0FFF1F3A95E1F7E81B32
:10461000F90BE40FF51FE05BFE4FEA0FFB1F8081F3
:10462000816480838DE490E0861B970BFC0124E07D
:10463000EE0FFF1F2A95E1F7E81BF90BE40FF51FBA
:10464000E05BFE4FEA0FFB1F8081816480838CE476
:1046500090E0861B970BFC0114E0EE0FFF1F1A95EC
:10466000E1F7E81BF90BE40FF51FE05BFE4FEA0FE3
:10467000FB1F8081816480838BE490E0861B970B15
:10468000FC0164E0EE0FFF1F6A95E1F7E81BF90BF0
:10469000E40FF51FE05BFE4FEA0FFB1F8081826293
:1046A0000C94EF2C642F70E08FE490E0861B970B46
:1046B000232F30E0A12FB0E0FC0144E0EE0FFF1FFC
:1046C0004A95E1F7E81BF90BA901440F551F420F6A
:1046D000531FE40FF51FE05BFE4FEA0FFB1F8081C5
:1046E0008F6780838EE490E0861B970BFC0134E09B
:1046F000EE0FFF1F3A95E1F7E81BF90BE40FF51FEA
:10470000E05BFE4FEA0FFB1F8081816480838DE4B4
:1047100090E0861B970BFC0124E0EE0FFF1F2A950B
:10472000E1F7E81BF90BE40FF51FE05BFE4FEA0F22
:10473000FB1F8081816480838CE490E0861B970B53
:10474000FC0114E0EE0FFF1F1A95E1F7E81BF90BCF
:10475000E40FF51FE05BFE4FEA0FFB1F80818262D2
:1047600080838BE490E0861B970BFC0164E0EE0FE6
:10477000FF1F6A95E1F7E81BF90BE40FF51FE05BFB
:10478000FE4FEA0FFB1F80818C610C94EF2C642F8D
:1047900070E08FE490E0861B970B232F30E0A12F71
:1047A000B0E0FC0144E0EE0FFF1F4A95E1F7E81B83
:1047B000F90BA901440F551F420F531FE40FF51FBA
:1047C000E05BFE4FEA0FFB1F80818F6780838EE4E2
:1047D00090E0861B970BFC0134E0EE0FFF1F3A952B
:1047E000E1F7E81BF90BE40FF51FE05BFE4FEA0F62
:1047F000FB1F8081896480838DE490E0861B970B8A
:10480000FC0124E0EE0FFF1F2A95E1F7E81BF90BEE
:10481000E40FF51FE05BFE4FEA0FFB1F8081896408
:1048200080838CE490E0861B970BFC0114E0EE0F74
:10483000FF1F1A95E1F7E81BF90BE40FF51FE05B8A
:10484000FE4FEA0FFB1F8081896427C2642F70E04E
:104850008FE490E0861B970B232F30E0A12FB0E070
:10486000FC0144E0EE0FFF1F4A95E1F7E81BF90B4E
:10487000A901440F551F420F531FE40FF51FE05BC2
:10488000FE4FEA0FFB1F80818F6780838EE490E0EC
:10489000861B970BFC0134E0EE0FFF1F3A95E1F702
:1048A000E81BF90BE40FF51FE05BFE4FEA0FFB1F5F
:1048B0008081886480838DE490E0861B970BFC01E7
:1048C00024E0EE0FFF1F2A95E1F7E81BF90BE40F38
:1048D000F51FE05BFE4FEA0FFB1F80818864808339
:1048E0008CE490E0861B970BFC0114E0EE0FFF1F99
:1048F0001A95E1F7E81BF90BE40FF51FE05BFE4F9B
:10490000EA0FFB1F80818864C7C5642F70E08FE4C5
:1049100090E0861B970B232F30E0A12FB0E0FC0125
:1049200044E0EE0FFF1F4A95E1F7E81BF90BA901E0
:10493000440F551F420F531FE40FF51FE05BFE4F5E
:10494000EA0FFB1F80818E6380838EE490E0861BDC
:10495000970BFC0134E0EE0FFF1F3A95E1F7E81BDF
:10496000F90BE40FF51FE05BFE4FEA0FFB1F8081A0
:10497000816480838DE490E0861B970BFC0124E02A
:10498000EE0FFF1F2A95E1F7E81BF90BE40FF51F67
:10499000E05BFE4FEA0FFB1F8081896480838CE41B
:1049A00090E0861B970BFC0114E0EE0FFF1F1A9599
:1049B000E1F7E81BF90BE40FF51FE05BFE4FEA0F90
:1049C000FB1F8081896480838BE490E0861B970BBA
:1049D000FC0164E0EE0FFF1F6A95E1F7E81BF90B9D
:1049E000E40FF51FE05BFE4FEA0FFB1F80818F6233
:1049F000F6C7642F70E08FE490E0861B970B232F9F
:104A000030E0A12FB0E0FC0144E0EE0FFF1F4A951B
:104A1000E1F7E81BF90BA901440F551F420F531F83
:104A2000E40FF51FE05BFE4FEA0FFB1F80818F67ED
:104A300080838EE490E0861B970BFC0134E0EE0F40
:104A4000FF1F3A95E1F7E81BF90BE40FF51FE05B58
:104A5000FE4FEA0FFB1F8081886080838DE490E029
:104A6000861B970BFC0124E0EE0FFF1F2A95E1F750
:104A7000E81BF90BE40FF51FE05BFE4FEA0FFB1F8D
:104A80008081886080838CE490E0861B970BFC011A
:104A900014E0EE0FFF1F1A95E1F7E81BF90BE40F86
:104AA000F51FE05BFE4FEA0FFB1F808188603CC270
:104AB000642F70E08EE490E0861B970B232F30E08C
:104AC000A12FB0E0FC0144E0EE0FFF1F4A95E1F793
:104AD000E81BF90BA901440F551F420F531FE40FA8
:104AE000F51FE05BFE4FEA0FFB1F8081816480832E
:104AF0008DE490E0861B970BFC0114E0EE0FFF1F86
:104B00001A95E1F7E81BF90BE40FF51FE05BFE4F88
:104B1000EA0FFB1F80818F6780838CE490E0C0C028
:104B2000642F70E08FE490E0861B970B232F30E01A
:104B3000A12FB0E0FC0144E0EE0FFF1F4A95E1F722
:104B4000E81BF90BA901440F551F420F531FE40F37
:104B5000F51FE05BFE4FEA0FFB1F808182608083C0
:104B60008EE490E0861B970BFC0134E0EE0FFF1FF4
:104B70003A95E1F7E81BF90BE40FF51FE05BFE4FF8
:104B8000EA0FFB1F8081816080838DE490E0861BAB
:104B9000970BFC0124E0EE0FFF1F2A95E1F7E81BBD
:104BA000F90BE40FF51FE05BFE4FEA0FFB1F80815E
:104BB000816480838CE490E0861B970BFC0114E0F9
:104BC000EE0FFF1F1A95E1F7E81BF90BE40FF51F35
:104BD000E05BFE4FEA0FFB1F80818E675DC4642F90
:104BE00070E08FE490E0861B970B232F30E0A12F1D
:104BF000B0E0FC0144E0EE0FFF1F4A95E1F7E81B2F
:104C0000F90BA901440F551F420F531FE40FF51F65
:104C1000E05BFE4FEA0FFB1F80818F6780838EE48D
:104C200090E0861B970BFC0134E0EE0FFF1F3A95D6
:104C3000E1F7E81BF90BE40FF51FE05BFE4FEA0F0D
:104C4000FB1F8081886080838DE490E0861B970B3A
:104C5000FC0124E0EE0FFF1F2A95E1F7E81BF90B9A
:104C6000E40FF51FE05BFE4FEA0FFB1F80818461BC
:104C700080838CE490E0861B970BFC0114E0EE0F20
:104C8000FF1F1A95E1F7E81BF90BE40FF51FE05B36
:104C9000FE4FEA0FFB1F8081826280838BE490E0ED
:104CA000861B970BFC0164E0EE0FFF1F6A95E1F78E
:104CB000E81BF90BE40FF51FE05BFE4FEA0FFB1F4B
:104CC000808181648CC6642F70E08FE490E0861B45
:104CD000970B232F30E0A12FB0E0FC0144E0EE0F52
:104CE000FF1F4A95E1F7E81BF90BA901440F551F77
:104CF000420F531FE40FF51FE05BFE4FEA0FFB1F4F
:104D000080818F6780838EE490E0861B970BFC0187
:104D100034E0EE0FFF1F3A95E1F7E81BF90BE40FC3
:104D2000F51FE05BFE4FEA0FFB1F808181608083EF
:104D30008DE490E0861B970BFC0124E0EE0FFF1F33
:104D40002A95E1F7E81BF90BE40FF51FE05BFE4F36
:104D5000EA0FFB1F8081816080838CE490E0861BDA
:104D6000970BFC0114E0EE0FFF1F1A95E1F7E81B0B
:104D7000F90BE40FF51FE05BFE4FEA0FFB1F80818C
:104D8000816080838BE490E0861B970BFC0164E0DC
:104D9000EE0FFF1F6A95E1F7E81BF90BE40FF51F13
:104DA000E05BFE4FEA0FFB1F8081816018C6642F15
:104DB00070E08FE490E0861B970B232F30E0A12F4B
:104DC000B0E0FC0144E0EE0FFF1F4A95E1F7E81B5D
:104DD000F90BA901440F551F420F531FE40FF51F94
:104DE000E05BFE4FEA0FFB1F80818F6780838EE4BC
:104DF00090E0861B970BFC0134E0EE0FFF1F3A9505
:104E0000E1F7E81BF90BE40FF51FE05BFE4FEA0F3B
:104E1000FB1F8081806280838DE490E0861B970B6E
:104E2000FC0124E0EE0FFF1F2A95E1F7E81BF90BC8
:104E3000E40FF51FE05BFE4FEA0FFB1F80818861E6
:104E400080838CE490E0861B970BFC0114E0EE0F4E
:104E5000FF1F1A95E1F7E81BF90BE40FF51FE05B64
:104E6000FE4FEA0FFB1F808180625EC0642F70E0FE
:104E70008FE490E0861B970B232F30E0A12FB0E04A
:104E8000FC0144E0EE0FFF1F4A95E1F7E81BF90B28
:104E9000A901440F551F420F531FE40FF51FE05B9C
:104EA000FE4FEA0FFB1F80818F6780838EE490E0C6
:104EB000861B970BFC0134E0EE0FFF1F3A95E1F7DC
:104EC000E81BF90BE40FF51FE05BFE4FEA0FFB1F39
:104ED0008081806180838DE490E0861B970BFC01CC
:104EE00024E0EE0FFF1F2A95E1F7E81BF90BE40F12
:104EF000F51FE05BFE4FEA0FFB1F80818860808317
:104F00008CE490E0861B970BFC0114E0EE0FFF1F72
:104F10001A95E1F7E81BF90BE40FF51FE05BFE4F74
:104F2000EA0FFB1F8081846080838BE490E0861B06
:104F3000970BFC0164E0EE0FFF1F6A95E1F7E81B99
:104F4000F90BE40FF51FE05BFE4FEA0FFB1F8081BA
:104F50008F6745C5642F70E08FE490E0861B970B48
:104F6000232F30E0A12FB0E0FC0144E0EE0FFF1F43
:104F70004A95E1F7E81BF90BA901440F551F420FB1
:104F8000531FE40FF51FE05BFE4FEA0FFB1F80810C
:104F90008E6380838EE490E0861B970BFC0134E0E7
:104FA000EE0FFF1F3A95E1F7E81BF90BE40FF51F31
:104FB000E05BFE4FEA0FFB1F8081816480838DE4FC
:104FC00090E0861B970BFC0124E0EE0FFF1F2A9553
:104FD000E1F7E81BF90BE40FF51FE05BFE4FEA0F6A
:104FE000FB1F8081816480838CE490E0861B970B9B
:104FF000FC0114E0EE0FFF1F1A95E1F7E81BF90B17
:10500000E40FF51FE05BFE4FEA0FFB1F8081816418
:1050100080838BE490E0861B970BFC0164E0EE0F2D
:10502000FF1F6A95E1F7E81BF90BE40FF51FE05B42
:10503000FE4FEA0FFB1F80818E63D1C4642F70E0A6
:105040008FE490E0861B970B232F30E0A12FB0E078
:10505000FC0144E0EE0FFF1F4A95E1F7E81BF90B56
:10506000A901440F551F420F531FE40FF51FE05BCA
:10507000FE4FEA0FFB1F80818F6780838EE490E0F4
:10508000861B970BFC0134E0EE0FFF1F3A95E1F70A
:10509000E81BF90BE40FF51FE05BFE4FEA0FFB1F67
:1050A0008081886480838DE490E0861B970BFC01EF
:1050B00024E0EE0FFF1F2A95E1F7E81BF90BE40F40
:1050C000F51FE05BFE4FEA0FFB1F80818864808341
:1050D0008CE490E0861B970BFC0114E0EE0FFF1FA1
:1050E0001A95E1F7E81BF90BE40FF51FE05BFE4FA3
:1050F000EA0FFB1F8081886480838BE490E0861B2D
:10510000970BFC0164E0EE0FFF1F6A95E1F7E81BC7
:10511000F90BE40FF51FE05BFE4FEA0FFB1F8081E8
:1051200080635DC4642F70E08FE490E0861B970B72
:10513000232F30E0A12FB0E0FC0144E0EE0FFF1F71
:105140004A95E1F7E81BF90BA901440F551F420FDF
:10515000531FE40FF51FE05BFE4FEA0FFB1F80813A
:105160008E6380838EE490E0861B970BFC0134E015
:10517000EE0FFF1F3A95E1F7E81BF90BE40FF51F5F
:10518000E05BFE4FEA0FFB1F8081816480838DE42A
:1051900090E0861B970BFC0124E0EE0FFF1F2A9581
:1051A000E1F7E81BF90BE40FF51FE05BFE4FEA0F98
:1051B000FB1F8081856480838CE490E0861B970BC5
:1051C000FC0114E0EE0FFF1F1A95E1F7E81BF90B45
:1051D000E40FF51FE05BFE4FEA0FFB1F8081826446
:1051E00080838BE490E0861B970BFC0164E0EE0F5C
:1051F000FF1F6A95E1F7E81BF90BE40FF51FE05B71
:10520000FE4FEA0FFB1F80818D63E9C3642F70E0BE
:105210008FE490E0861B970B232F30E0A12FB0E0A6
:10522000FC0144E0EE0FFF1F4A95E1F7E81BF90B84
:10523000A901440F551F420F531FE40FF51FE05BF8
:10524000FE4FEA0FFB1F80818F6780838EE490E022
:10525000861B970BFC0134E0EE0FFF1F3A95E1F738
:10526000E81BF90BE40FF51FE05BFE4FEA0FFB1F95
:105270008081886480838DE490E0861B970BFC011D
:1052800024E0EE0FFF1F2A95E1F7E81BF90BE40F6E
:10529000F51FE05BFE4FEA0FFB1F80818C6480836B
:1052A0008CE490E0861B970BFC0114E0EE0FFF1FCF
:1052B0001A95E1F7E81BF90BE40FF51FE05BFE4FD1
:1052C000EA0FFB1F80818A6480838BE490E0861B59
:1052D000970BFC0164E0EE0FFF1F6A95E1F7E81BF6
:1052E000F90BE40FF51FE05BFE4FEA0FFB1F808117
:1052F000816375C3642F70E08FE490E0861B970B89
:10530000232F30E0A12FB0E0FC0144E0EE0FFF1F9F
:105310004A95E1F7E81BF90BA901440F551F420F0D
:10532000531FE40FF51FE05BFE4FEA0FFB1F808168
:10533000816380838EE490E0861B970BFC0134E050
:10534000EE0FFF1F3A95E1F7E81BF90BE40FF51F8D
:10535000E05BFE4FEA0FFB1F8081896480838DE450
:1053600090E0861B970BFC0124E0EE0FFF1F2A95AF
:10537000E1F7E81BF90BE40FF51FE05BFE4FEA0FC6
:10538000FB1F8081896480838CE490E0861B970BEF
:10539000FC0114E0EE0FFF1F1A95E1F7E81BF90B73
:1053A000E40FF51FE05BFE4FEA0FFB1F808189646D
:1053B00080838BE490E0861B970BFC0164E0EE0F8A
:1053C000FF1F6A95E1F7E81BF90BE40FF51FE05B9F
:1053D000FE4FEA0FFB1F8081866401C3642F70E0DB
:1053E0008FE490E0861B970B232F30E0A12FB0E0D5
:1053F000FC0144E0EE0FFF1F4A95E1F7E81BF90BB3
:10540000A901440F551F420F531FE40FF51FE05B26
:10541000FE4FEA0FFB1F8081806480838EE490E062
:10542000861B970BFC0134E0EE0FFF1F3A95E1F766
:10543000E81BF90BE40FF51FE05BFE4FEA0FFB1FC3
:105440008081806480838DE490E0861B970BFC0153
:1054500024E0EE0FFF1F2A95E1F7E81BF90BE40F9C
:10546000F51FE05BFE4FEA0FFB1F80818F67808393
:105470008CE490E0861B970BFC0114E0EE0FFF1FFD
:105480001A95E1F7E81BF90BE40FF51FE05BFE4FFF
:10549000EA0FFB1F8081806480838BE490E0861B91
:1054A000970BFC0164E0EE0FFF1F6A95E1F7E81B24
:1054B000F90BE40FF51FE05BFE4FEA0FFB1F808145
:1054C00080648DC2642F70E08FE490E0861B970BA0
:1054D000232F30E0A12FB0E0FC0144E0EE0FFF1FCE
:1054E0004A95E1F7E81BF90BA901440F551F420F3C
:1054F000531FE40FF51FE05BFE4FEA0FFB1F808197
:105500008E6780838EE490E0861B970BFC0124E07D
:10551000EE0FFF1F2A95E1F7E81BF90BE40FF51FCB
:10552000E05BFE4FEA0FFB1F8081816080838DE48A
:1055300090E0861B970BFC0114E0EE0FFF1F1A95FD
:10554000E1F7E81BF90BE40FF51FE05BFE4FEA0FF4
:10555000FB1F80818160BDC0642F70E08FE490E00C
:10556000861B970B232F30E0A12FB0E0FC0144E015
:10557000EE0FFF1F4A95E1F7E81BF90BA901440F55
:10558000551F420F531FE40FF51FE05BFE4FEA0F5C
:10559000FB1F80818C6780838EE490E0861B970BD5
:1055A000FC0134E0EE0FFF1F3A95E1F7E81BF90B21
:1055B000E40FF51FE05BFE4FEA0FFB1F8081826066
:1055C00080838DE490E0861B970BFC0124E0EE0FB6
:1055D000FF1F2A95E1F7E81BF90BE40FF51FE05BCD
:1055E000FE4FEA0FFB1F8081816080838CE490E096
:1055F000861B970BFC0114E0EE0FFF1F1A95E1F7D5
:10560000E81BF90BE40FF51FE05BFE4FEA0FFB1FF1
:105610008081826080838BE490E0861B970BFC0185
:1056200064E0EE0FFF1F6A95E1F7E81BF90BE40F4A
:10563000F51FE05BFE4FEA0FFB1F80818C67CFC137
:10564000642F70E08FE490E0861B970B232F30E0EF
:10565000A12FB0E0FC0144E0EE0FFF1F4A95E1F7F7
:10566000E81BF90BA901440F551F420F531FE40F0C
:10567000F51FE05BFE4FEA0FFB1F80818E67808382
:105680008EE490E0861B970BFC0134E0EE0FFF1FC9
:105690003A95E1F7E81BF90BE40FF51FE05BFE4FCD
:1056A000EA0FFB1F8081816080838DE490E0861B80
:1056B000970BFC0124E0EE0FFF1F2A95E1F7E81B92
:1056C000F90BE40FF51FE05BFE4FEA0FFB1F808133
:1056D000866080838CE490E0861B970BFC0114E0CD
:1056E000EE0FFF1F1A95E1F7E81BF90BE40FF51F0A
:1056F000E05BFE4FEA0FFB1F8081816080838BE4BB
:1057000090E0861B970BFC0164E0EE0FFF1F6A958B
:10571000E1F7E81BF90BE40FF51FE05BFE4FEA0F22
:10572000FB1F80818E675BC1642F70E08FE490E087
:10573000861B970B232F30E0A12FB0E0FC0144E043
:10574000EE0FFF1F4A95E1F7E81BF90BA901440F83
:10575000551F420F531FE40FF51FE05BFE4FEA0F8A
:10576000FB1F8081836680838EE490E0861B970B0D
:10577000FC0134E0EE0FFF1F3A95E1F7E81BF90B4F
:10578000E40FF51FE05BFE4FEA0FFB1F8081846191
:1057900080838DE490E0861B970BFC0124E0EE0FE4
:1057A000FF1F2A95E1F7E81BF90BE40FF51FE05BFB
:1057B000FE4FEA0FFB1F8081886080838CE490E0BD
:1057C000861B970BFC0114E0EE0FFF1F1A95E1F703
:1057D000E81BF90BE40FF51FE05BFE4FEA0FFB1F20
:1057E0008081846180838BE490E0861B970BFC01B1
:1057F00064E0EE0FFF1F6A95E1F7E81BF90BE40F79
:10580000F51FE05BFE4FEA0FFB1F80818366E7C058
:10581000642F70E08FE490E0861B970B232F30E01D
:10582000A12FB0E0FC0144E0EE0FFF1F4A95E1F725
:10583000E81BF90BA901440F551F420F531FE40F3A
:10584000F51FE05BFE4FEA0FFB1F808180678083BE
:105850008EE490E0861B970BFC0134E0EE0FFF1FF7
:105860003A95E1F7E81BF90BE40FF51FE05BFE4FFB
:10587000EA0FFB1F8081886080838DE490E0861BA7
:10588000970BFC0124E0EE0FFF1F2A95E1F7E81BC0
:10589000F90BE40FF51FE05BFE4FEA0FFB1F808161
:1058A000876080838CE490E0861B970BFC0114E0FA
:1058B000EE0FFF1F1A95E1F7E81BF90BE40FF51F38
:1058C000E05BFE4FEA0FFB1F8081886080838BE4E2
:1058D00090E0861B970BFC0164E0EE0FFF1F6A95BA
:1058E000E1F7E81BF90BE40FF51FE05BFE4FEA0F51
:1058F000FB1F8081806773C0642F70E08FE490E0AD
:10590000861B970B232F30E0A12FB0E0FC0144E071
:10591000EE0FFF1F4A95E1F7E81BF90BA901440FB1
:10592000551F420F531FE40FF51FE05BFE4FEA0FB8
:10593000FB1F8081836480838EE490E0861B970B3D
:10594000FC0124E0EE0FFF1F2A95E1F7E81BF90B9D
:10595000E40FF51FE05BFE4FEA0FFB1F80818564BB
:1059600080838DE490E0861B970BFC0114E0EE0F22
:10597000FF1F1A95E1F7E81BF90BE40FF51FE05B39
:10598000FE4FEA0FFB1F8081896480838CE490E0E6
:10599000861B970BFC0134E0EE0FFF1F3A95E1F7F1
:1059A000E81BF90BE40FF51FE05BFE4FEA0FFB1F4E
:1059B0008081816580838BE490E0861B970BFC01DE
:1059C00024E0EE0FFF1F2A95E1F7E81BF90BE40F27
:1059D000F51FE05BFE4FEA0FFB1F8081816680832D
:1059E0001F910895FF920F931F93CF93DF93EC01C4
:1059F000F62E142F022F07C06F2D412F202F0E944B
:105A0000E41C1A5F219688818823B1F7DF91CF913A
:105A10001F910F91FF900895A0E0B0E0E2E1FDE258
:105A20000C94AF2DEC01A880B980CA80DB80A11452
:105A3000B104C104D10441F484E2A82E89EDB82E4A
:105A40008BE5C82E87E0D82EC601B5012DE133EFD6
:105A500041E050E00E948C2D27EA31E440E050E024
:105A60000E946D2D7B018C01C601B5012DE133EF44
:105A700041E050E00E948C2DCA01B9012CEE34EFB8
:105A80004FEF5FEF0E946D2D6E0D7F1D801F911FE8
:105A900097FF04C0615070408040904868837983CC
:105AA0008A839B839B013F77C901CDB7DEB7EAE0CC
:105AB0000C94CB2D0E940C2D08958BE491E00E9454
:105AC0000C2D0895A0E0B0E080934B0190934C0121
:105AD000A0934D01B0934E010895629FD001739F32
